:10000000757100784079507A0676317C0408DAF907
:1000100078407A007B06C2B6C2B1112A116011B9CC
:1000200074C0114511BF116C80FA7438114511600C
:10003000740F1145116074011145116074801145F0
:100040001160C2B022F5A0C2B2C2B3D2B41160C274
:10005000B422F5A0D2B2C2B3D2B41167C2B4116750
:100060007EC81167DEFC227DFADDFE223172317816
:10007000319211D02230313233343536373839416C
:100080004243444546454E54455220504153533A0D
:1000900000313131313100535543434553534655B7
:1000A0004C0057524F4E472050415353574F5244E4
:1000B000004348414E47453A00900085316622D2C0
:1000C00094D295D296D297C290C291C292C29322F4
:1000D00030940A3095073096043097012211601150
:1000E000E222C290D291D292D2933133E5326006AD
:1000F0009401F534803AC291D290D292D2933133A6
:10010000E53260062403F5348026C292D290D29163
:10011000D2933133E53260062407F5348012C2935E
:10012000D290D291D2923133E5326004240BF5346F
:10013000315722209405753201801B2095057532B8
:10014000028013209605753203800B2097057532C7
:100150000480037532002290007593F7090A11524A
:0A016000116022012422E4936007DD
:10016A0011521160A380F52220B10122011A20B098
:10017A000122E4ECB40103411C22ECB4020341372E
:10018A0022ECB40372413C2220B601227C01800099
:10019A007C017401114511609002CE316674C01160
:1001AA00451160016C2279607F007A007C0274013B
:1001BA00114511609001F8316674C0114511600152
:1001CA006C2279507A007C03740111451160900108
:1001DA00E6316674C011451160016C225245454EE4
:1001EA00544552204E455720504153533A004E45EC
:1001FA0057205041535300EA8B749574B4006C79BC
:10020A00507840E687749574B400600908DAF441BE
:10021A009D22EA8B749574B4005179507840E68730
:10022A00749574B400450908DAF421B022EAFF8013
:10023A009122EF8A749574B4005979607850867463
:10024A00E79574B400250908DAF4800122E4EFFB8B
:10025A0079607840E4E7F60809DCF97C04784079AB
:10026A00507F007A0075710080042251B222740115
:10027A001145116090028C316611601160116001A4
:10028A001A224348414E4745442050415353574F41
:0E029A00524400C2B5740111451160900097E6
:1002A8003166116030B5FD011A22740111451160E3
:1002B8009000A2316674C011451160116011607A16
:1002C800007950011A224F4C4420504153533A00B0
:00000001FF
