:10000000757200782079607A4090030C763108DAB6
:10001000FB7C0078207A007B04C2B6C2B1112D119E
:100020006F11C574C0114811DB117480FA74381156
:10003000481168740F1148116874011148116874EF
:100040008011481168C2B022F5A0C2B2C2B3D2B4C6
:100050001168C2B422F5A0D2B2C2B3D2B4116FC239
:10006000B4116F116F116F227EFA116FDEFC227DC9
:10007000FADDFE2231A831AE31C811FD2230313215
:1000800033343536373839414243444546454E547A
:100090004552204452415745523A00445241574537
:1000A0005220005355434345535346554C00575235
:1000B0004F4E472050415353574F524400434841FD
:1000C0004E47453A0090008D319C2290009B319C18
:1000D000E57C90007D931155116822D294D295D27F
:1000E00096D297C290C291C292C29322D290D291DC
:1000F000D292D293C294C295C296C29722BA0403F6
:1001000021B22230940A30950D3096103097132288
:10011000756800312822756801312822756802311E
:10012000282275680331282211EC30900A3091138F
:1001300030921E30932922E568F57A116811681112
:1001400068802AE568F57A240411681168116880CE
:100150001CE568F57A2408116811681168800EE5BD
:1001600068F57A240C1168116811688000BC001DC4
:0201700080010C
:1001720022F57C1168317A227C04740111481168DD
:1001820011CB74C01148116801742290007D93F75D
:10019200090A1155116822012722E49360071155BB
:1001A2001168A380F52220B10122011D20B0012295
:1001B200E4ECB40103415822ECB40203417322EC93
:1001C200B4037841782220B601227C0180007401B8
:1001D2001148116890031C319C74C01148116801C8
:1001E200742279647F007A007C02740111481168DC
:1001F20090022C319C74C0114811680174227960FC
:100202007A007C0374011148116890021A319C74BF
:10021200C0114811680174225245454E544552207E
:100222004E455720504153533A004E4557205041B6
:10023200535300E57C90030C93F8225135EA8B75F9
:100242009575B400687960E687759575B4005E09A6
:1002520008DAF441D9225135EA8B759575B4004D0F
:100262007960E687759575B400430908DAF421E4EC
:1002720022EAFF808922EF8A759575B40059796464
:1002820078608675E79575B400230908DAF4800171
:06029200225135E4EFFBF0
:100298007964E4E7F60809DCF97C0479607F007A80
:1002A8000075720080042251F0227C00740111480C
:1002B80011689002C8319C116811681168011D22EB
:1002C8004348414E4745442050415353574F5244A9
:1002D80000C2B57401114811689000A3319C1168DF
:1002E80030B5FD7C00011D22740111481168900091
:1002F800AE319C74C011481168116811687A007990
:1003080060011D222024282C3034383C4044484CBD
:0E0318005054585C4F4C4420504153533A000F
:00000001FF
